:020000040800F2
:10000000D807002035110008F1080008F30800089F
:10001000F7080008FB080008FF08000800000000BF
:1000200000000000000000000000000003090008BC
:100030000509000800000000070900080909000878
:100040004F1100084F1100084F1100084F11000810
:100050004F1100084F1100084F1100084F11000800
:100060004F1100084F1100084F1100084F110008F0
:100070004F1100084F1100084F1100084F110008E0
:100080004F1100084F1100084F1100084F110008D0
:100090004F1100084F1100084F1100084F110008C0
:1000A0004F1100084F1100084F1100084F110008B0
:1000B0004F1100084F0E00084F1100084F110008A3
:1000C0004F1100084F1100084F1100084F11000890
:1000D0004F110008B71000084F1100084F11000819
:1000E0004F1100084F1100084F1100084F11000870
:1000F0004F1100084F1100084F1100084F11000860
:100100004F1100084F1100084F1100084F1100084F
:100110004F1100084F1100084F110008AB0E0008E6
:100120004F1100084F1100084F1100084F1100082F
:1001300000F002F800F03AF80AA090E8000C8244BF
:100140008344AAF10107DA4501D100F02FF8AFF29C
:10015000090EBAE80F0013F0010F18BFFB1A43F0A5
:1001600001031847842E0000A42E0000103A24BF7B
:1001700078C878C1FAD8520724BF30C830C144BF0C
:1001800004680C607047000000230024002500264E
:10019000103A28BF78C1FBD8520728BF30C148BFEA
:1001A0000B6070471FB51FBD10B510BD02F0ECFE0F
:1001B0001146FFF7F7FF00F009F802F00AFF03B459
:1001C000FFF7F2FF03BC00F00DFF0000C2B00026F5
:1001D000002700F0A5FE4FF4A06000F0CBFF4FF425
:1001E000E13000F00EFF00F081FC00F091FC0A21EC
:1001F00040F2E73000F0B1FC0A2140F2E73000F0B5
:1002000049FD00F0F2FD4FF48071FE4801F02DF938
:10021000FD4802F0AFFC8021FC4801F028F94FF4C2
:100220007A7000F0BAFE4FF47A7000F0B6FE4FF428
:100230007A7000F0B2FE4FF47A7000F0AEFE4FF428
:100240007A7000F0AAFE4FF47A7000F0A6FE4FF428
:100250007A7000F0A2FE4FF47A7000F09EFE4FF428
:100260007A7000F09AFE4FF47A7000F096FE4FF428
:100270007A7000F092FE4FF47A7000F08EFE4FF428
:100280007A7000F08AFE4FF47A7000F086FE4FF428
:100290007A7000F082FE4FF47A7000F07EFE4FF428
:1002A0007A7000F07AFE4FF47A7000F076FE4FF428
:1002B0007A7000F072FE4FF47A7000F06EFE02F079
:1002C00045FD0AE3D04800788DF87C00CE484078A0
:1002D0008DF87D00CC4880788DF87E00CA48C078C3
:1002E0008DF87F00C84800798DF88000C6484079B5
:1002F0008DF88100C44880798DF88200C248C079A9
:100300008DF88300C048007A8DF88400BE48407A9A
:100310008DF88500BC48807A8DF88600BA48C07A8E
:100320008DF88700B848007B8DF88800B648407B80
:100330008DF88900B448807B8DF88A00B248C07B74
:100340008DF88B00B048007C8DF88C00AE48407C66
:100350008DF88D00AC48807C8DF88E00AA48C07C5A
:100360008DF88F00A848007D8DF89000A648407D4C
:100370008DF89100A448807D8DF89200A248C07D40
:100380008DF89300A048007E8DF894009E48407E32
:100390008DF895009C48807E8DF896009A48C07E26
:1003A0008DF897009848007F8DF898009648407F18
:1003B0008DF899009448807F8DF89A009248C07F0C
:1003C0008DF89B00904890F820008DF89C008E4896
:1003D00090F821008DF89D008B4890F822008DF850
:1003E0009E00894890F823008DF89F00864890F879
:1003F00024008DF8A000844890F825008DF8A10015
:10040000814890F826008DF8A2007F4890F82700D8
:100410008DF8A3007C4890F828008DF8A4007A4855
:1004200090F829008DF8A500774890F82A008DF8FB
:10043000A600754890F82B008DF8A700724890F838
:100440002C008DF8A800704890F82D008DF8A900B8
:100450006D4890F82E008DF8AA006B4890F82F0098
:100460008DF8AB00684890F830008DF8AC00664815
:1004700090F831008DF8AD00634890F832008DF8A7
:10048000AE00614890F833008DF8AF005E4890F8F8
:1004900034008DF8B0005C4890F835008DF8B1005C
:1004A000594890F836008DF8B200574890F8370058
:1004B0008DF8B300544890F838008DF8B4005248D5
:1004C00090F839008DF8B5004F4890F83A008DF853
:1004D000B6004D4890F83B008DF8B7004A4890F8B8
:1004E0003C008DF8B800484890F83D008DF8B90000
:1004F000454890F83E008DF8BA00434890F83F0018
:100500008DF8BB00404890F840008DF8BC003E4894
:1005100090F841008DF8BD003B4890F842008DF8FE
:10052000BE00394890F843008DF8BF00364890F877
:1005300044008DF8C000344890F845008DF8C100A3
:10054000314890F846008DF8C2002F4890F84700D7
:100550008DF8C3002C4890F848008DF8C4002A4854
:1005600090F849008DF8C500274890F84A008DF8AA
:10057000C600254890F84B008DF8C700224890F837
:100580004C008DF8C800204890F84D008DF8C90047
:100590001D4890F84E008DF8CA001B4890F84F0097
:1005A0008DF8CB00184890F850008DF8CC00164814
:1005B00090F851008DF8CD00134890F852008DF856
:1005C000CE00114890F853008DF8CF000E4890F8F7
:1005D00054008DF8D0000C4890F855008DF8D100EB
:1005E000094890F856008DF8D200074890F8570057
:1005F0008DF8D300044890F858008DF8D4000248D4
:1006000006E00000000C01406400002000100140E2
:1006100090F859008DF8D500B04890F85A008DF840
:10062000D600AE4890F85B008DF8D700AB4890F844
:100630005C008DF8D800A94890F85D008DF8D900CD
:10064000A64890F85E008DF8DA00A44890F85F00A4
:100650008DF8DB00A14890F860008DF8DC009F4821
:1006600090F861008DF8DD009C4890F862008DF8EC
:10067000DE009A4890F863008DF8DF00974890F804
:1006800064008DF8E000954890F865008DF8E10071
:10069000924890F866008DF8E200904890F8670064
:1006A0008DF8E3008D4890F868008DF8E4008B48E1
:1006B00090F869008DF8E500884890F86A008DF898
:1006C000E600864890F86B008DF8E700834890F8C4
:1006D0006C008DF8E800814890F86D008DF8E90015
:1006E0007E4890F86E008DF8EA007C4890F86F0024
:1006F0008DF8EB00794890F870008DF8EC007748A1
:1007000090F871008DF8ED00744890F872008DF843
:10071000EE00724890F873008DF8EF006F4890F883
:1007200074008DF8F0006D4890F875008DF8F100B8
:100730006A4890F876008DF8F200684890F87700E3
:100740008DF8F300654890F878008DF8F400634860
:1007500090F879008DF8F500604890F87A008DF8EF
:10076000F6005E4890F87B008DF8F7005B4890F843
:100770007C008DF8F800594890F87D008DF8F9005C
:10078000564890F87E008DF8FA00544890F87F00A3
:100790008DF8FB00514890F880008DF8FC004F4820
:1007A000D0F8840040904D48D0F888007C2223A9DE
:1007B0004190684602F08BFB1FA80FC802F000FAB8
:1007C00000B18AE0454802F0DCF945490870072F7E
:1007D0007FD2DFE807F0040E163742506100404830
:1007E0000078FF2804D1012700203E490880002618
:1007F00071E03B480078FF2801D1022700E0002784
:1008000069E001203849087035480078022809D18C
:1008100080463448008832490978084431490880C4
:1008200003270EE02E480078032809D180462D4882
:1008300000882B49097808442A490880032700E0EA
:10084000002748E0274800882549097808442549B9
:1008500008802348057804273DE022480088204985
:10086000097808441F4908801D48007840EA05209F
:1008700004B205272FE01B4800881949097808446D
:1008800018490880164802783046761C17490A54E1
:10089000A64200DB06271EE012480088FF2190FBDD
:1008A000F1F201FB12000F4908800D480078098819
:1008B00088420CD1224641460C4802F09BF902F0D6
:1008C000BAFA002007490880002701E001E000276C
:1008D00001E0002700BF00BF00BFF3E46400002078
:1008E000000000200200002001000020F000002095
:1008F000704700BFFEE700BFFEE700BFFEE700BF96
:10090000FEE7704770477047704700000CB5002045
:10091000019000906C48006840F480306A4908609B
:1009200000BF6948006800F4003000900198401C46
:100930000190009818B90198B0F5A06FF1D1624804
:10094000006800F4003010B10120009001E00020A8
:1009500000900098012843D15C48006840F01000E6
:100960005A4908600846006820F0030008600846FD
:10097000006840F0020008605348406852494860EF
:100980000846406848600846406840F48060486017
:100990000846406820F47C1048600846406840F4EF
:1009A000E81048600846006840F08070086000BFAA
:1009B0004548006800F000700028F9D042484068BF
:1009C00020F00300404948600846406840F00200BB
:1009D000486000BF3C48406800F00C000828F9D18E
:1009E0000CBD10B5FFF792FF10BD10B5364800687A
:1009F00040F0010034490860084640683449084026
:100A00003149486008460068324908402E4908606C
:100A10000846006820F4802008600846406820F4FA
:100A2000FE0048604FF41F008860FFF7DAFF4FF0C8
:100A300000602949086010BD10B500210020002287
:100A4000214B5B6803F00C0121B1042906D0082971
:100A500028D107E0214B224C236027E01F4B204C7C
:100A6000236023E0184B5B6803F47010164B5B683F
:100A700003F48032022303EB904022B9194B434325
:100A8000174C23600DE0104B5B6803F4003323B177
:100A9000144B4343124C236003E0104B4343104C70
:100AA000236003E00D4B0E4C236000BF00BF064BDC
:100AB0005B68C3F303130C4CE15C094B1B68CB4030
:100AC000074C236010BD00000010024000200240CF
:100AD0000000FFF8FFFFF6FE08ED00E000127A00CC
:100AE0000400002000093D000800002010B501218D
:100AF000202000F0D6FE0121042000F0C5FE0121D7
:100B0000082000F0C1FE0121102000F0BDFE10BD44
:100B100010B50121084600F0B7FE1020EF49C8705B
:100B2000032088704FF400500880ED4800F0F0FB7F
:100B30008020EA490880EA4800F0EAFB4FF4805040
:100B4000E6490880E64800F0E3FB4FF48070E34993
:100B50000880E44800F0DCFB10BD7FB505460C467C
:100B60000121022000F09DFEADF80850ADF80440D0
:100B70000020ADF80A00ADF8060001A9DA4800F03F
:100B8000BBFF01221146D84801F02DFB1D208DF836
:100B9000000000208DF8010003208DF802000120E4
:100BA0008DF80300684600F0EAFA0121CE4801F012
:100BB000FFFA7FBD30B589B004460D4601214803D8
:100BC00000F062FE0121084600F05EFE01211020C7
:100BD00000F05AFE4020ADF8200018208DF82300C8
:100BE00003208DF8220008A9BD4800F091FB4FF4C6
:100BF0000070ADF8200018208DF8230003208DF838
:100C0000220008A9B64800F083FBADF8145000207C
:100C1000ADF81600ADF81840ADF81A008DF81C00BC
:100C200005A9B24800F068FF7020ADF8040001206B
:100C3000ADF806000020ADF808000220ADF80C0069
:100C40000020ADF80E004FF48070ADF810000020C9
:100C5000ADF8120001A9A54800F08BFF01A9A34837
:100C600001F061F80121A14801F0AEFA08219F4886
:100C700001F0D7FB01219D4801F09AFA4FF4487129
:100C80009A4801F02DFD4FF44871984801F02EFD6F
:100C900009B030BD30B589B004460D4601210420AD
:100CA00000F0FFFD0121084600F0EEFD01210820C3
:100CB00000F0EAFD4020ADF8200018208DF8230058
:100CC00003208DF8220008A9864800F021FBADF82A
:100CD00014500020ADF81600ADF81840ADF81A0019
:100CE0008DF81C0005A9824800F006FF7020ADF8C1
:100CF00004000120ADF806000220ADF80C00C00190
:100D0000ADF8100001A97A4800F033FF01A9784836
:100D100001F009F80121764801F056FA08217448DB
:100D200001F07FFB40F25231714801F0D9FC09B06B
:100D300030BD30B589B004460D460121082000F0D1
:100D4000B0FD0121084600F09FFD0121042000F0C4
:100D50009BFD0420ADF8200018208DF8230003200F
:100D60008DF8220008A9634800F0D2FAADF81450BB
:100D70000020ADF81600ADF81840ADF81A008DF857
:100D80001C0005A95C4800F0B7FE7020ADF8040017
:100D90000120ADF806000020ADF808000220ADF8F3
:100DA0000C000020ADF80E004FF48070ADF810007C
:100DB0000020ADF8120001A94F4800F0DAFE01A9A9
:100DC0004D4800F065FF01A94B4800F0ACFF012140
:100DD000494801F0F9F90821474801F022FB0121B7
:100DE000454801F0E5F909B030BD10B54FF4A060F9
:100DF00000F0C0F93720414908700120C870022076
:100E0000487001208870084600F0B9F900214FF0C1
:100E1000006000F0E6F942F20F703949888041F62F
:100E20001F4008800020C88048800872354800F0C4
:100E300063FE0121334801F013FC0121314801F028
:100E4000B7F9012211462F4801F0CDF910BD10B5B8
:100E50000121254801F075FC30B30121224801F041
:100E600081FC29480068401C274908602748008801
:100E7000401C2649088024480068254909688842A2
:100E800012DD002020490860214908600120214925
:100E900008602148006838B90021154801F088F938
:100EA0000021114801F084F910BD10B50121154849
:100EB00001F047FC012810D118480068404217494A
:100EC000086015480068012803D10846006801F051
:100ED000C9FE01210B4801F045FC10BD180000209F
:100EE00000100140000C01400004004000340140AB
:100EF0000008004000080140000C00401C000020D9
:100F00006E0100200014004024000020200000207A
:100F100054000020580000205C0000202800002021
:100F200010B56FF0040000F074F92A4800682A49EF
:100F3000B0FBF1F0294908700846007800EB400149
:100F4000C1EBC0104FF6FF7101EAC00024490880D0
:100F500010BD0146214A12784A434FF0E0235A61FE
:100F600000229A611A46126942F001021A6100BF1A
:100F70004FF0E022106900F001021AB100F4803253
:100F8000002AF5D04FF0E022126922F001024FF062
:100F9000E0231A6100229A6170470146104A1288C4
:100FA0004A434FF0E0235A6100229A6101221A61FC
:100FB00000BF4FF0E022106900F001021AB100F406
:100FC0008032002AF5D000224FF0E0231A619A61A6
:100FD000704700000400002000127A002C0000205E
:100FE0002E000020014600BF704700BF4A4A128809
:100FF00002F04002002AF9D0C2B2474B1B1D1A80F2
:10100000704710B586B00446012144F2040000F098
:101010003BFC4FF40070ADF8140003208DF816006F
:1010200018208DF8170005A93C4800F071F94FF41D
:101030008060ADF8140004208DF8170005A937482A
:1010400000F066F925208DF8000003208DF80100DE
:101050008DF8020001208DF80300684600F08FF83B
:1010600001940020ADF80800ADF80A00ADF80C00BE
:10107000ADF810000C20ADF80E0001A9264801F0D3
:10108000B8FB012240F22551234801F04AFC01211E
:10109000214801F03AFC06B010BD10B504462146C7
:1010A0001D4801F09FFC00BF40211B4801F008FDD6
:1010B0000028F9D010BD00B59FB040F22551164868
:1010C00001F014FD28B316480078C0431449087095
:1010D00014480068C0431449C1F890017C221349A8
:1010E000684601F0F4FE114810380FC801F072FD97
:1010F00050B9094801F07AFC0D490870084601789A
:101100000A48103801F04DFD40F22551024801F027
:1011100017FD1FB000BD000000380140000801406D
:101120003000002090812142008021427400002084
:101130003A0000200948804709480047FEE7FEE7DB
:10114000FEE7FEE7FEE7FEE7FEE7FEE7FEE7FEE777
:1011500004480549054A064B70470000EB090008A2
:1011600031010008D8010020D8070020D803002052
:10117000D803002031490143314A1160704770B5EE
:10118000002100230F22C47804B32D4C246804F4FA
:10119000E064C4F5E064210AC1F10403CA40447864
:1011A00004FA03F18478144021430901254C0678A0
:1011B000A155047804F01F050124AC4005786D1199
:1011C000AD0005F1E025C5F8004109E0047804F020
:1011D0001F050124AC401C4D0678761145F82640C9
:1011E00070BD1A4A0A400243154B1B1F1A60704714
:1011F00039B1134A121D12680243114B1B1D1A60AC
:1012000006E00F4A121D126882430D4B1B1D1A6027
:101210007047042808D14FF0E021096941F004012A
:101220004FF0E022116107E04FF0E021096921F061
:1012300004014FF0E0221161704700000000FA0540
:101240000CED00E000E400E080E100E080FFFF1F23
:1012500010B50446CC48844208D10121042000F096
:101260002DFB0021042000F029FB46E0C748844202
:1012700008D10121082000F021FB0021082000F006
:101280001DFB3AE0C248844208D10121102000F041
:1012900015FB0021102000F011FB2EE0BD48844218
:1012A00008D10121202000F009FB0021202000F0BE
:1012B00005FB22E0B848844208D10121402000F01B
:1012C000FDFA0021402000F0F9FA16E0B34884420C
:1012D00008D10121802000F0F1FA0021802000F0E7
:1012E000EDFA0AE0AE48844207D10121801500F0F2
:1012F000E5FA0021A01500F0E1FA10BD10B50121BA
:10130000084600F0DBFA0021012000F0D7FA10BDFA
:101310002DE9F0410246002500260020002300248C
:10132000002791F803C00CF00F0591F803C00CF0F2
:10133000100CBCF1000F03D091F802C04CEA050577
:1013400091F800C0BCF1000F31D0146800202BE0F0
:101350004FF0010C0CFA00F3B1F800C00CEA0306E0
:101360009E4220D183004FF00F0C0CFA03F7BC43D0
:1013700005FA03FC4CEA040491F803C0BCF1280F01
:1013800006D14FF0010C0CFA00FCC2F814C00AE0C0
:1013900091F803C0BCF1480F05D14FF0010C0CFAD5
:1013A00000FCC2F810C0401C0828D1D31460B1F86A
:1013B00000C0BCF1FF0F34DD546800202EE000F1C6
:1013C000080C4FF0010808FA0CF3B1F800C00CEA61
:1013D00003069E4221D183004FF00F0C0CFA03F755
:1013E000BC4305FA03FC4CEA040491F803C0BCF1C9
:1013F000280F05D100F1080C08FA0CF8C2F8148087
:1014000091F803C0BCF1480F07D100F1080C4FF070
:10141000010808FA0CF8C2F81080401C0828CED346
:101420005460BDE8F0814FF6FF71018002218170A8
:101430000421C17070470246002093680B400BB135
:10144000012000E0002070470146886880B27047A4
:1014500002460020D3680B400BB1012000E00020C1
:1014600070470146C86880B27047016170474161AA
:1014700070470AB1016100E041617047C160704787
:101480004FF480320A43826181618261826982699C
:10149000704702460020434B18684FF6807318408F
:1014A00040EA021008433F4B186070473E49C8614C
:1014B0007047F0B50A46002300240021002500F003
:1014C0000046B6F1004F02D1364EF16901E0354ECB
:1014D0007168C0F3034583B200F44016B6F5401FAF
:1014E00008D121F070612F4E766826F070662D4F7E
:1014F0007E6012E000F48016B6F5801F06D1032648
:1015000006FA05F4A14341F0706106E0460D36018C
:1015100003FA06F6B14341F0706122B1460D36017F
:1015200003FA06F6314300F00046B6F1004F02D14F
:101530001C4EF16101E01B4E7160F0BD30B5002220
:101540008B071C0F0F2303FA04F2164B08338C1081
:1015500053F824309343134C08348D1044F825304D
:1015600023468C1053F824308C07240F00FA04F41F
:1015700023430C4C08348D1044F8253030BD0A4903
:10158000DC3108607047000000080140000C014099
:10159000001001400014014000180140001C0140EF
:1015A000002001400000014000002042DF480068A8
:1015B00040F00100DD49086008464068DC49084009
:1015C000DA49486008460068DA490840D7490860A7
:1015D0000846006820F4802008600846406820F42F
:1015E000FE0048604FF41F0088607047CF490968CB
:1015F00021F48031CD4A11601146096821F480211F
:101600001160B0F5803F03D0B0F5802F0ED106E019
:10161000C649096841F48031C44A116007E0C349F2
:10162000096841F4A021C14A116000E000BF00BF79
:10163000704710B501460022002300204A11012AFC
:1016400002D1BA4C236806E0022A02D1B74C236AC1
:1016500001E0B64C636A01F01F02012494401C4073
:101660000CB1012000E0002010BD38B50020009032
:101670000024002500BF3120FFF7DBFF054600985E
:10168000401C00900098B0F5A06F01D0002DF2D062
:101690003120FFF7CEFF08B1012400E000242046EE
:1016A00038BD01460020A14A106820F0F80040EA49
:1016B000C10010607047A0490860704702460020D2
:1016C0009A4B586820F47C1042EA01031843974B68
:1016D0005860704798490866704701460020934A51
:1016E000506820F003000843506070478F484068FE
:1016F00000F00C007047014600208C4A506820F032
:10170000F00008435060704701460020874A506847
:1017100020F4E06008435060704701460020834A8F
:10172000506820F4605040EAC1005060704729B111
:101730007E4A527A02437D4B5A7204E07B4A527AC7
:1017400082437A4B5A7270477B49D83108607047A0
:1017500001460020754A506820F44040084350601C
:1017600070470021714A20321170704A82F82010AF
:10177000012802D004280AD104E001216B4A20325A
:10178000117005E00521694A2032117000E000BFA8
:1017900000BF70476949086070476449096A01439E
:1017A000624A11627047654944390860704730B534
:1017B00000210022002400235C4D6D6805F00C011F
:1017C00021B1042905D0082923D105E05C4D05602D
:1017D00022E05B4D05601FE0544D6D6805F470120A
:1017E000524D6D6805F48034022505EB92421CB918
:1017F000544D554305600BE04C4D6D6805F40035C4
:101800001DB1504D5543056002E04D4D55430560F7
:1018100002E04B4D056000BF00BF444D6D6805F010
:10182000F0010909484D6B5C0568DD4045603F4D9E
:101830006D6805F4E061090A434D6B5C4568DD4065
:1018400085603A4D6D6805F46051C90A3E4D6B5C88
:101850004568DD40C560354D6D6805F44041890B34
:101860003A4D6B5CC568B5FBF3F5056130BD29B138
:101870002E4A526902432D4B5A6104E02B4A5269A9
:1018800082432A4B5A61704729B1284A9269024320
:10189000264B9A6104E0254A92698243234B9A6160
:1018A000704729B1214AD2690243204BDA6104E032
:1018B0001E4AD26982431D4BDA61704729B11B4A27
:1018C000D2680243194BDA6004E0184AD2688243B6
:1018D000164BDA60704729B1144A12690243134B60
:1018E0001A6104E0114A12698243104B1A61704771
:1018F00012494039086070470F49C86470470B4966
:10190000C87170470948406A40F0807007494862D2
:10191000704701460020054A92680A400AB101203A
:1019200000E00020704701498872704700100240B3
:101930000000FFF8FFFFF6FE000042428004424232
:1019400000127A0000093D003B0000204B000020FF
:1019500010B50446FE48844208D10121C014FFF7A7
:10196000ADFF0021E014FFF7A9FFC4E0B4F1804F00
:1019700008D101210846FFF7AEFF00210120FFF743
:10198000AAFFB8E0F348844208D101210220FFF702
:10199000A2FF00210220FFF79EFFACE0EE48844248
:1019A00008D101210420FFF796FF00210420FFF752
:1019B00092FFA0E0E948844208D101210820FFF706
:1019C0008AFF00210820FFF786FF94E0E448844264
:1019D00008D101211020FFF77EFF00211020FFF722
:1019E0007AFF88E0DF48844208D101212020FFF7F8
:1019F00072FF00212020FFF76EFF7CE0DA4884426E
:101A000008D101214014FFF759FF00216014FFF7AE
:101A100055FF70E0D548844209D10121C804FFF781
:101A20004DFF00214FF40020FFF748FF63E0D0484E
:101A3000844209D101210805FFF740FF00214FF43E
:101A40008010FFF73BFF56E0CA48844209D10121CC
:101A50004805FFF733FF00214FF40010FFF72EFF7A
:101A600049E0C548844208D101214020FFF733FFF7
:101A700000214020FFF72FFF3DE0C048844208D1FD
:101A800001218020FFF727FF00218020FFF723FF9F
:101A900031E0BB48844208D101218015FFF71BFFCC
:101AA0000021A015FFF717FF25E0B648844209D1B1
:101AB00001210804FFF702FF00214FF48030FFF7F7
:101AC000FDFE18E0B048844209D101214804FFF727
:101AD000F5FE00214FF40030FFF7F0FE0BE0AB48BD
:101AE000844208D101218804FFF7E8FE00214FF469
:101AF0008020FFF7E3FE10BD00220288944B98423D
:101B00000ED0994B98420BD0B0F1804F08D0914B3A
:101B1000984205D0904B984202D0904B984204D105
:101B20004FF68F731A404B881A438D4B984207D05B
:101B30008C4B984204D04FF6FF431A40CB881A438F
:101B400002808B8883850B880385814B98420BD05C
:101B5000854B984208D08B4B984205D08A4B9842CF
:101B600002D08A4B984201D10B7A038601238382EB
:101B7000704770B5002400220023058C4FF6FE76D6
:101B800035400584028C8388048B4FF68F752C407A
:101B9000B51E2C400D882C43751E2A400D892A4302
:101BA0004D882A436A4DA8420BD06F4DA84208D0F9
:101BB000744DA84205D0744DA84202D0734DA8427E
:101BC00013D14FF6F7752A404D892A434FF6FB751E
:101BD0002A408D882A434FF6FF652B404FF6FF556C
:101BE0002B408D892B43CD892B4383800483CD8863
:101BF0008586028470BD70B5002400220023058C08
:101C00004FF6EF7635400584028C8388048B48F6C6
:101C1000FF752C404FF6FF452C400D884FF6FF76A0
:101C200006EA05252C434FF6DF752A400D8906EAA2
:101C300005152A434D8806EA05152A43444DA84256
:101C400002D0494DA8421DD14FF67F752A404D89DB
:101C50004FF6FF7606EA05152A434FF6BF752A4070
:101C60008D8806EA05152A434FF6FF352B404FF2C3
:101C7000FF752B408D8906EA85052B43CD8906EA41
:101C800085052B4383800483CD880587028470BD3E
:101C900070B5002400220023058C4FF6FF66354006
:101CA0000584028C8388848B4FF68F752C404FF609
:101CB000FC752C400D882C434FF6FF552A400D89AA
:101CC0004FF6FF7606EA05252A434D8806EA0525E4
:101CD0002A431F4DA84202D0234DA8421DD14FF2E6
:101CE000FF752A404D894FF6FF7606EA05252A43FF
:101CF0004FF6FF352A408D8806EA05252A434EF621
:101D0000FF752B404DF6FF752B408D8906EA0515B2
:101D10002B43CD8906EA05152B4383808483CD8828
:101D20008587028470BD70B5002200230024058CD5
:101D30004EF6FF7635400584038C8488828B48F606
:101D4000FF752A404FF6FF452A400D8820E000002D
:101D5000002C01400004004000080040000C00403E
:101D6000001000400014004000340140004C0140CD
:101D7000005001400054014000180040001C004089
:101D80000020004000400140004401400048014064
:101D90004FF6FF7606EA05252A434DF6FF752B40E0
:101DA0000D8906EA05352B434D8806EA05352B4398
:101DB000FA4DA84202D0FA4DA84208D14BF6FF7561
:101DC0002C408D894FF6FF7606EA85152C438480DA
:101DD0008283CD88A0F84050038470BD828B4FF27F
:101DE000FF331A408283828B4FF6FF7303EA01238D
:101DF0001A4382837047F0B50C4615460022002135
:101E00000026078C4EF6FF7C07EA0C070784828BBE
:101E1000018C4FF6FF7707EA043640F6FF473A4059
:101E20004FF6FF7707EA05273A434FF6FF7707EAB1
:101E300003373A43D94FB8420ED0D94FB8420BD0EE
:101E4000B0F1804F08D0D74FB84205D0D64FB84236
:101E500002D0D64FB84206D14DF6FF77394046F44E
:101E60008057394305E047F6FF57394044F480571F
:101E7000394382830184F0BD828B4FF6F3731A409D
:101E80008283828B0A4382837047F0B50C461546E5
:101E9000002200210026078C4FF6FF6C07EA0C0792
:101EA0000784828B018C4FF6FF7707EA04264FF6F2
:101EB0000C773A404FF6FF7707EA03172F433A4370
:101EC000B64FB8420ED0B64FB8420BD0B0F1804FEB
:101ED00008D0B44FB84205D0B34FB84202D0B34F88
:101EE000B84206D14FF6FF57394046F48077394360
:101EF00005E04FF2FF57394044F48077394382833D
:101F00000184F0BD028B4FF2FF331A400283028B33
:101F10004FF6FF7303EA01231A4302837047F0B5BB
:101F20000C461546002200210026078C4FF6EF7C58
:101F300007EA0C070784028B018C4FF6FF7707EA4C
:101F4000041640F6FF473A404FF6FF7707EA03379B
:101F50003A434FF6FF7707EA05273A438F4FB842D7
:101F60000ED08F4FB8420BD0B0F1804F08D08D4FBC
:101F7000B84205D08C4FB84202D08C4FB84206D13F
:101F80004FF6DF77394046F01007394305E04FF64A
:101F90005F77394044F01007394302830184F0BD74
:101FA000028B4FF6F3731A400283028B0A430283BB
:101FB0007047F0B50C46154600220021068C4FF6FE
:101FC000FE773E400684028B018C4FF60C76324041
:101FD0007E1C06EA03162E433243704EB0420ED0EA
:101FE0006F4EB0420BD0B0F1804F08D06D4EB04272
:101FF00005D06D4EB04202D06C4EB04206D14FF6C5
:10200000FD76314044F00106314305E04FF6F576A8
:10201000314044F00106314302830184F0BD70B5C4
:1020200005460C465D4885420ED05D4885420BD082
:10203000B5F1804F08D05B48854205D05A488542AB
:1020400002D05A48854200D100E000BF208850B934
:102050002389A28861882846FFF7ABFFE1882846DC
:10206000FFF79EFF25E0208804280AD12389A28853
:1020700061882846FFF753FFE1882846FFF742FFB3
:1020800017E0208808280AD12389A2886188284679
:10209000FFF7FBFEE1882846FFF7EEFE09E0238903
:1020A000A28861882846FFF7A6FEE1882846FFF748
:1020B00095FE70BD2DE9F04105460C46002601272E
:1020C000608808B9022600E00026A088012801D116
:1020D000022700E001272088A0B92389A28861880F
:1020E0002846FFF766FFE1882846FFF759FF238956
:1020F0003A4631462846FFF712FFE1882846FFF7A7
:1021000001FF13E02389A28861882846FFF707FFB3
:10211000E1882846FFF7F6FE23893A4631462846ED
:10212000FFF747FFE1882846FFF73AFFBDE8F08157
:102130000A884B881A438B881A43CB881A430B8929
:102140001A434B891A438B891A43A0F844207047DD
:102150004FF6FF71818000210180C18041800172B2
:1021600070470021018041808180C18001814181CF
:102170008181C181704700210180418001218180DE
:102180000021C18001817047002101804180818050
:10219000C18001814181818170470000002C014094
:1021A000003401400004004000080040000C0040E2
:1021B00021B1028842F00102028004E002884FF659
:1021C000FE731A400280704731B1B0F8442042F4E7
:1021D0000042A0F8442005E0B0F84420C2F30E020B
:1021E000A0F8442070471AB183890B43838102E031
:1021F00083898B43838170478182704741EA020360
:10220000A0F8483070471AB183890B43838102E0FC
:1022100083898B438381704701894FF6F87211409F
:10222000018170470A46002101894FF68F731940DA
:1022300011430181704730B504460D4629462046BA
:10224000FFF7F0FF208940F00700208130BD2DE925
:10225000F04104460D4616461F46602D06D13B460A
:10226000012231462046FFF75AFE05E03B46012297
:1022700031462046FFF79DFE29462046FFF7D2FF54
:10228000208940F007002081BDE8F08130B50C4680
:1022900000210189C9B24FF6FF7505EA03251543F0
:1022A00025432943018130BD2DE9F04105460E4605
:1022B00017469846002443463A4631462846FFF7DB
:1022C000E5FF2C894FF6F870044044F007044FF600
:1022D0008F70044044F070042C81BDE8F081F0B5AB
:1022E00004460D4616461F463B46324629462046C2
:1022F000FFF7CCFF208940F480402081F0BD0185AC
:10230000828270470A46002101884FF68F73194078
:10231000114301807047F0B50C4615461E4600215A
:10232000002200230189028B038C4FF6F877394095
:1023300021434FF6FC473A4040F201173A434FF62B
:10234000DD773B404FF6FF7707EA06172F433B4305
:10235000018102830384F0BD0A460021018B4FF600
:102360008F7319401143018370470A460021018B86
:1023700048F6FF7319404FF6FF7303EA022319432F
:10238000018370470A460021818B4FF68F731940F5
:102390001143818370470A460021818B48F6FF7301
:1023A00019404FF6FF7303EA0223194381837047F4
:1023B00021B1028842F08002028004E002884FF6D8
:1023C0007F731A400280704721B1828842F0040274
:1023D000828004E082884FF6FB731A408280704747
:1023E00021B1828842F00802828004E082884FF6A0
:1023F000F7731A408280704721B1828842F001024F
:10240000828004E082884FF6FE731A408280704713
:102410000A460021018B4FF6F773194011430183DF
:1024200070470A460021018B4FF2FF7319404FF6A7
:10243000FF7303EA02231943018370470A46002110
:10244000818B4FF6F77319401143818370470A4619
:102450000021818B4FF2FF7319404FF6FF7303EA9F
:1024600002231943818370470A460021018B4FF6EE
:10247000FB7319401143018370470A460021018B09
:102480004FF6FF3319404FF6FF7303EA0223194357
:10249000018370470A460021818B4FF6FB73194078
:1024A0001143818370470A460021818B4FF6FF3329
:1024B00019404FF6FF7303EA0223194381837047E3
:1024C0000A460021018B4FF67F73194011430183A7
:1024D00070470A460021018BC1F30E014FF6FF73CE
:1024E00003EA02231943018370470A460021818BC6
:1024F0004FF67F7319401143818370470A460021CC
:10250000818BC1F30E014FF6FF7303EA02231943D7
:10251000818370470A460021018C4FF6FD731940F4
:102520001143018470470A460021018C4FF6F7736E
:1025300019401143018470470A460021018C4FF66F
:10254000DF7319404FF6FF7303EA02131943018446
:1025500070470A460021018C4FF67F7319404FF6F1
:10256000FF7303EA02131943018470470A460021EE
:10257000018C4FF6FF5319404FF6FF7303EA022315
:102580001943018470470A460021018C4FF2FF7302
:1025900019404FF6FF7303EA022319430184704781
:1025A0000A460021018C4DF6FF7319404FF6FF7368
:1025B00003EA023319430184704730B50023012434
:1025C0008C40A3B2048C9C430484048C02FA01F571
:1025D000ADB22C43048430BD30B5002304248C40BC
:1025E000A3B2048C9C430484048C02FA01F5ADB2BE
:1025F0002C43048430BD70B50346002000241846E7
:10260000183001258D40ACB21D8CA5431D8409B145
:10261000082909D100EB6100056825F07005056007
:102620000568154305600EE00D1FC5F34E052844EF
:10263000056825F4E045056005684FF6FF7606EA73
:1026400002263543056070BD21B1028842F00202C6
:10265000028004E002884FF6FD731A400280704742
:1026600021B1028842F00402028004E002884FF6A1
:10267000FB731A400280704721B1828842F08002C9
:10268000828004E082884FF67F731A408280704710
:1026900002884FF6F7731A40028002880A430280CC
:1026A000704782884FF68F731A40828082880A436F
:1026B0008280704702894FF6F8731A4002810289BE
:1026C0000A430281704702894FF67F731A400281E4
:1026D00002890A430281704781847047818570476F
:1026E000818670470187704781877047A0F8401046
:1026F000704702884FF6FF431A40028002880A435F
:10270000028070470146888E70470146088F7047E7
:102710000146888F70470146B1F840007047014676
:10272000888C70470146088D704702460020138A46
:102730000B400BB1012000E000207047CA43028229
:10274000704730B50246002000230024158A05EAB0
:102750000103958905EA010413B10CB1012000E0E1
:10276000002030BDCA4302827047000010B5044605
:10277000FB48844209D101218803FFF79FF800211B
:102780004FF48040FFF79AF832E0F648844209D1CE
:1027900001214804FFF79FF800214FF40030FFF7B4
:1027A0009AF825E0F048844209D101218804FFF716
:1027B00092F800214FF48020FFF78DF818E0EB48E5
:1027C000844209D10121C804FFF785F800214FF4A4
:1027D0000020FFF780F80BE0E548844208D1012192
:1027E0000805FFF778F800214FF48010FFF773F821
:1027F00010BD2DE9F04786B005460E460024A246DE
:1028000000BFA1460027B08900B100BF2F462C8A27
:102810004CF6FF700440F08804432C82AC894EF6DD
:10282000F3100440B0883189084371890843044398
:10283000AC81AC8A4FF6FF400440B0890443AC82BF
:1028400001A8FEF7B4FFC648874202D1DDF810A008
:1028500001E0DDF80CA0A88900F4004040B10AEBCB
:10286000CA0000EB0A1031684900B0FBF1F807E03C
:102870000AEBCA0000EB0A1031688900B0FBF1F8DE
:102880006420B8FBF0F004012009642101FB1089E9
:10289000A88900F4004040B1322000EBC900B0FB31
:1028A000F1F000F00700044308E0322000EB0910CB
:1028B0006421B0FBF1F000F00F0004432C8106B05E
:1028C000BDE8F0874FF41651016000218180C1807E
:1028D00001810C21418100218181704710B50246A0
:1028E0000020108A4FF2FF0318400B884C882343C6
:1028F0008C882343CC8823431843108210BD0021C9
:10290000018041808180C180704721B1828942F479
:102910000052828104E082894DF6FF731A40828161
:102920007047F0B50346002400260025002040F63D
:102930006A17B94200D100BF1846C1F3421401F032
:102940001F06012707FA06F5012C01D10C3004E01F
:10295000022C01D1103000E014301AB107682F4367
:10296000076002E00768AF430760F0BD1AB1838AD1
:102970000B43838202E0838A8B4383827047028AFF
:102980004FF6F0731A400282028A0A4302827047AD
:1029900082894FF2FF731A40828182890A438281C1
:1029A000704721B1828942F00202828104E082896B
:1029B0004FF6FD731A4082817047028A4FF6DF732B
:1029C0001A400282028A0A430282704721B1028AB7
:1029D00042F48042028204E0028A4BF6FF731A40FE
:1029E00002827047C1F308028280704701468888DE
:1029F000C0F308007047818941F00101818170476F
:102A0000028BD2B20283028B42EA01220283704718
:102A1000028B02F47F420283028B0A4302837047D7
:102A200021B1828A42F02002828204E0828A4FF63B
:102A3000DF731A408282704721B1828A42F010020D
:102A4000828204E0828A4FF6EF731A4082827047D6
:102A500021B1828A42F00802828204E0828A4FF623
:102A6000F7731A408282704721B1828942F4004292
:102A7000828103E08289C2F30E028281704721B114
:102A8000828A42F40062828204E0828A4FF2FF73FB
:102A90001A4082827047828A4FF6FB731A40828204
:102AA000828A0A438282704721B1828A42F00202FE
:102AB000828204E0828A4FF6FD731A408282704758
:102AC00002460020B1F5007F00D100BF13880B4003
:102AD0000BB1012000E00020704701F40072B2F554
:102AE000007F00D100BFCA430280704770B5024624
:102AF000002400230025002040F66A16B14200D1D0
:102B000000BFC1F3421501F01F03012606FA03F3CB
:102B1000012D02D19689334006E0022D02D1168A9A
:102B2000334001E0968A33400C12012606FA04F481
:102B30001688344013B10CB1012000E0002070BDB4
:102B400010B50022002340F66A14A14200D100BF54
:102B50000A1201249440A3B2DC43048010BD00009B
:102B6000003801400044004000480040004C004054
:102B70000050004010B504468C21204600F0D9F9E1
:102B800010BD10B50146D1F88420885CD1F88420AE
:102B9000521C812392FBF3F403FB1422C1F884201E
:102BA00010BD10B5D0F888208154D0F88820521C70
:102BB000812392FBF3F403FB1422C0F8882010BD9C
:102BC0000FB421982299884202D1012004B07047A5
:102BD0000020FBE70FB42298401C812190FBF1F20A
:102BE00001FB12002199884202D1012004B07047F4
:102BF0000020FBE710B5022902D003292FD126E0DF
:102C00000378012B22D14378012B03D10423A64C56
:102C1000236025E04378022B03D10523A24C2360D7
:102C20001EE04378032B03D106239F4C236017E05B
:102C30004378042B03D107239B4C236010E0437897
:102C4000082B03D10C23984C236009E000BF0378C4
:102C5000012B03D10A23944C236001E000BF00BF85
:102C600000BF10BD10B50446002C09DD4FF4807183
:102C70008E48FEF7FCFB4FF400518D48FEF7F5FB44
:102C8000002C09DA4FF480718848FEF7F0FB4FF40E
:102C900000518748FEF7EBFB10BD10B501218548B8
:102CA000FFF786FA01218448FFF782FA10BD10B5BC
:102CB00000218048FFF77CFA00217F48FFF778FA6F
:102CC0000A2140F2E730FDF7E5FF00207B4908606C
:102CD0007B4908600120FFF7C5FF40F6B83079490D
:102CE0000860FFF7DAFF00BF744800680028FBD0D7
:102CF00000207249086010BD10B500216D48FFF733
:102D000057FA00216C48FFF753FA0A2140F2E730E6
:102D1000FDF7C0FF00206949086069490860401E4E
:102D2000FFF7A0FF40F6B83066490860FFF7B5FF2F
:102D300000BF624800680028FBD000205F4908609F
:102D40004FF480715948FEF790FB10BD10B500217B
:102D50005848FFF72DFA00215748FFF729FA0A21B2
:102D600040F2E730FDF796FF0020544908605449CF
:102D700008600120FFF776FF41F67860514908604E
:102D8000FFF78BFF00BF4D4800680028FBD00020F4
:102D90004A49086010BD10B500214648FFF708FAFF
:102DA00000214548FFF704FA0A2140F2E730FDF719
:102DB00071FF00204149086041490860401EFFF74B
:102DC00051FF41F678603F490860FFF766FF00BF9A
:102DD0003A4800680028FBD00020384908604FF4CA
:102DE00080713248FEF741FB10BD10B54FF48051A1
:102DF0002F48FEF73AFB4FF47A70FEF7CEF84FF407
:102E000080512B48FEF733FB80212948FEF72DFB2C
:102E10004FF47A70FEF7C1F880212548FEF727FBB2
:102E200010BD10B5B4212848FFF75EFC4FF41670B2
:102E3000FEF7B3F810BD10B51B4800680D2830D25E
:102E4000DFE800F0072F2F2F080E141A2F2F202F46
:102E5000260026E0FFF72BFF00201349086020E042
:102E6000FFF74AFF0020104908601AE0FFF76EFFE5
:102E700000200D49086014E0FFF78DFF00200A498B
:102E800008600EE0FFF7B1FF00200749086008E086
:102E90004FF480710548FEF7E8FA00200249086007
:102EA00000BF00BF10BD000050000020000C01401A
:102EB00000100140000400400008004058000020BD
:102EC0005C00002054000020000C0040704710B54A
:102ED000203AC0F00B80B1E81850203AA0E8185012
:102EE000B1E81850A0E81850BFF4F5AF5FEA027CD3
:102EF00024BFB1E81850A0E8185044BF18C918C042
:102F0000BDE810405FEA827C24BF51F8043B40F8E2
:102F1000043B08BF7047D20728BF31F8023B48BFC7
:102F200011F8012B28BF20F8023B48BF00F8012B05
:102F300070474FF0000200B513469446964620397C
:102F400022BFA0E80C50A0E80C50B1F12001BFF462
:102F5000F7AF090728BFA0E80C5048BF0CC05DF8C8
:102F600004EB890028BF40F8042B08BF704748BF16
:102F700020F8022B11F0804F18BF00F8012B70478A
:102F80007047704770477047754600F029F8AE46A5
:102F900005006946534620F00700854618B020B565
:102FA000FEF7D6F8BDE820404FF000064FF00007CE
:102FB0004FF000084FF0000B21F00701AC46ACE8E1
:102FC000C009ACE8C009ACE8C009ACE8C0098D464E
:102FD00070470446AFF300802046FDF7F0F800008C
:102FE00000487047780100200830000800000020E9
:102FF000640000006C0100086C30000864000020D0
:1030000074070000880100080001000000A24A04C3
:103010000000000000000000010203040607080988
:10302000000000000000000001000000000000009F
:10303000010000000000000000000000000000008F
:103040000000000000000001020304010203040666
:103050000708090204060800000000000000000044
:0C30600000000000000000000000000064
:0400000508000131BD
:00000001FF
